:060000000A128A1100291A
:10000800F000030EF1000B1810200B191C20710EC4
:100018008300F00E700E090003138312061CF20A07
:1000280072088500861CF203720885000B10080010
:1000380003138312FB3081000B1189012118282832
:100048002508870089142C282408870009142C28DF
:060058000130A1060800C2
:1002000023211A2147214E21412103138312720811
:10021000A0000C211321072920080F39A200200E6D
:100220000F39A300080022080022A400230800229E
:10023000A5000800031383161614961403138312E3
:1002400006080B10080003178316880189010313A1
:10025000831606148614031383168701850109107B
:100260008910031383168113031383169501151444
:100270009514031383128501870189018601F20118
:1002800008008B178B150B108B160B11080003132E
:1002900083160F140F178F120F1208000313831603
:1002A00081128111011581140114031383120313A8
:0A02B0008312FB3081000B110800DF
:100400008A018A140F3982073F3406345B344F3433
:1004100066346D347D3407347F346F3477347C3404
:0804200039345E347934713483
:04400E00D420FF3F7C
:00000001FF
